:100000000C948A000C94850F0C94850F0C94300E80
:100010000C94850F0C94850F0C94850F0C94850F10
:100020000C94850F0C94850F0C94850F0C94850F00
:100030000C94850F0C94AA0D0C94850F0C94850FCD
:100040000C94850F0C94850F0C945A0B0C94850F0F
:100050000C94850F0C94850F0C94850F0C94850FD0
:100060000C94850F0C94850F4605480548054805F6
:100070004805480548054805480548054805480518
:100080004805480548054805480548054805480508
:100090003E05480548054805480548054805480502
:1000A00048054805480548054805480548054805E8
:1000B00048054805400548054805480548054805E0
:1000C00042054805480544054805480548054805D2
:1000D0004A054805480548054805480548054805B6
:1000E00048054805480548054805480548054805A8
:1000F000480548053A0548054805480548054805A6
:100100003C05010001028001020154001F2001543E
:100110000159800011241FBECFEFD8E0DEBFCDBF54
:10012000E2E0F1E041E017C0B591A591359125914C
:10013000059107FD0CC095918591EF01F92FE82FEE
:1001400005900D92A217B307D9F7FE0104C01D92C6
:10015000A217B307E1F7E331F40731F70E94F40681
:080160000C943C0FF894FFCF52
:100168000000000000000000040E0E04040004005B
:100178001B1B120000000000000A1F0A0A1F0A00C9
:10018800080E100C021C04001919020408131300AD
:100198000814140815120D000C0C080000000000CB
:1001A80004080808080804000804040404040800F3
:1001B800000A0E1F0E0A00000004041F04040000B9
:1001C80000000000000C0C080000001F00000000E8
:1001D80000000000000C0C000001020408100000E0
:1001E8000E11131519110E00040C040404040E005A
:1001F8000E11010608101F000E11010E01110E004C
:1002080002060A121F0202001F10101E01110E0022
:100218000608101E11110E001F010204080808002C
:100228000E11110E11110E000E11110F01020C000A
:1002380000000C0C000C0C0000000C0C000C0C084E
:10024800020408100804020000001F00001F00003C
:1002580008040201020408000E110106040004004B
:100268000E11171517100E000E11111F1111110084
:100278001E11111E11111E000E11101010110E006A
:100288001E11111111111E001F10101E10101F0039
:100298001F10101E101010000E11101711110F0052
:1002A8001111111F111111000E04040404040E0091
:1002B8000101010111110E0011121418141211007C
:1002C8001010101010101F00111B15111111110022
:1002D80011191513111111000E11111111110E0020
:1002E8001E11111E101010000E11111115120D0003
:1002F8001E11111E121111000E11100E01110E0007
:100308001F040404040404001111111111110E003A
:1003180011111111110A04001111151515150A00F2
:1003280011110A040A1111001111110A0404040020
:100338001E02040810101E000E08080808080E0007
:1003480000100804020100000E02020202020E0060
:10035800040A110000000000000000000000001F57
:100368000C0C04000000000000000E010F110F002B
:1003780010101E1111111E0000000E1110110E0098
:1003880001010F1111110F0000000E111F100E00B6
:100398000608081E0808080000000F11110F010EBA
:1003A80010101C12121212000400040404040400A9
:1003B800020006020202120C101012141814120085
:1003C800040404040404060000001A1515111100A1
:1003D80000001C121212120000000E1111110E0062
:1003E80000001E1111111E1000000F1111110F0134
:1003F8000000160908081C0000000E100E010E006F
:1004080000081E08080A04000000121212160A004A
:1004180000001111110A040000001111151F0A0033
:10042800000012120C12120000001212120E041810
:1004380000001E020C101E00060808180808060016
:1004480004040404040404000C02020302020C0065
:1004580000000000000000000A000E010F110F004C
:100468000A000E1111110E000A00121212160A00CB
:100478000A0E111F111111000A0E111111110E008F
:100488000A11111111110E000C12121C12121C105B
:0804980006090906000000003E
:1004A0003E44485425642E303A25642E303C003EAC
:1004B00042544E303C003E42544E313C0025642EA6
:0904C00030B0430025642525003D
:1004C90068076C094C836A9074A07AC000806888B8
:0604D90000846C8200812A
:0704DF00286E756C6C29000A
:0604E600286E696C29007C
:0304EC004231009A
:1004F0002F923F924F926F927F928F929F92AF92E4
:10050000BF92CF92DF92EF92FF920F931F93CF9300
:10051000DF93CDB7DEB72E970FB6F894DEBF0FBED0
:10052000CDBF4C016B0138011A8219828FEF9FEF0A
:100530009C838B831E821D8258874F833A8729872D
:10054000A12CB12CD6012D913D914C912A0D3B1D32
:10055000411DB7FC4A95F901849147FD80818111C5
:1005600016C0F601208331834283F901849147FD4F
:100570008081853209F00FC21901442EFFEF2F1A36
:100580003F0A4F0AD6012D923D924C921BC08532F4
:1005900041F3B401082E000C990B0E943A0C4FEF66
:1005A000A41AB40ACFCF2C32DCF02D3229F52981E0
:1005B0003A8121603A8329830196A11DF601808347
:1005C0009183A283F60180819181A281FC01249113
:1005D000A7FD20812B3239F729813A812460EACFA7
:1005E000203221F429813A812860E4CF233251F46A
:1005F00029813A812061DECF203321F429813A819B
:100600002260D8CFB701C6010E94080D9E838D835A
:1006100097FF0BC029813A81F1E02F273A83298384
:100620009195819591099E838D8389819A8180FF1F
:1006300003C08D7F9A838983F60180819181A28195
:10064000FC012491A7FD20812E3261F40196A11DA9
:10065000F60180839183A283B701C6010E94080D31
:100660009C838B83C6010E940B0B182FD6012C9103
:1006700011968C91119712969C91E22FF82F8491EC
:1006800097FD8081082E000C990B0E946A0F893615
:1006900009F44AC084F4833609F419C134F485326C
:1006A00009F445C18136E1F050C18436E9F188365C
:1006B0000CF4E9C04AC1803709F4B0C03CF48E366E
:1006C00009F4D6C08F3609F46DC03FC1853709F4EF
:1006D0004AC0883709F485C0833709F036C10DC197
:1006E000612F70E0A701CE010B960E940000892BBC
:1006F00009F448C1F60180819181A2819C014A2FB1
:100700002F5F3F4F4F4F208331834283FC01249161
:10071000A7FD2081AE01455F5F4FBE016F5F7F4F38
:10072000C4010E9400002BC1612F70E0970141E0DD
:1007300050E0CE010B960E942C09892B09F422C1AE
:10074000F60180819181A2810196A11D8083918310
:10075000A283AE01455F5F4FBE016F5F7F4FC40153
:100760000E94B9080CC1612F70E0970140E050E091
:10077000CE010B960E942C09892B09F403C1F601C6
:1007800080819181A2810196A11D80839183A283A2
:10079000AE01455F5F4FBE016F5F7F4FC4010E9496
:1007A000830CEDC0612F70E0970140E050E0CE0176
:1007B0000B960E942C09892B09F4E4C0F601808174
:1007C0009181A2810196A11D80839183A283AE01B4
:1007D000455F5F4FBE016F5F7F4FC4010E945F0A9C
:1007E000CEC0612F70E0970140E050E0CE010B9643
:1007F0000E942C09892B09F4C5C0F60180819181E2
:10080000A2819C014A2F2F5F3F4F4F4F208331839E
:100810004283FC012491A7FD208120C0970140E084
:1008200050E060EF70E0CE010B960E942C09892BFE
:1008300009F4A8C0F60180819181A2810196A11DD1
:1008400080839183A2838B859C85892B31F400E082
:1008500010E026EE34E040E08CC028E7AE01455FB2
:100860005F4FBE016F5F7F4FC4010E94070687C0C4
:10087000A501460D571D612F70E09701CE010B9623
:100880000E9400007FC0612F70E0A701CE010B968F
:100890000E940000892B09F475C0F60180819181C6
:1008A000A2819C014A2F2F5F3F4F4F4F20833183FE
:1008B0004283FC012491A7FD2081AE01455F5F4F7B
:1008C000BE016F5F7F4FC4010E94000058C0103806
:1008D00009F058C0F60180819181A2810196A11D85
:1008E00080839183A283D701ED91FC911197CF0171
:1008F00002968D939C93808126C0103809F042C0E7
:10090000F60180819181A2810196A11D808391834E
:10091000A283D701ED91FC911197CF0103968D939E
:100920009C9320813181428100E010E022C0103888
:1009300049F5F6012081318142812F5F3F4F4F4FB2
:100940002083318342838B870EC085E28B87F6013B
:100950002082318242821A8219821E821D828FEF8A
:100960009FEF9C838B839E01255F3F4F40E801E012
:1009700010E0BE016F5F7F4FC4010E94CB0C8A0D57
:100980009B1D0AC0F60180819181A2810196A11D63
:1009900080839183A283C5012E960FB6F894DEBFA3
:1009A0000FBECDBFDF91CF911F910F91FF90EF90C0
:1009B000DF90CF90BF90AF909F908F907F906F907F
:0809C0004F903F902F90089525
:1009C8002F923F924F925F926F927F928F929F9257
:1009D800AF92BF92CF92DF92EF92FF920F931F9345
:1009E800CF93DF93CDB7DEB763970FB6F894DEBF2A
:1009F8000FBECDBF9D878C87862F4E87412FC98A12
:100A0800EC85FD851081112309F4E4C0922F990F1C
:100A1800990F990F920F3E853150390F3F87922FCA
:100A2800990F920F990F988B1A86622F70E0AE2C4F
:100A3800BF2C6894772472F8612C88248394912CB5
:100A480009834A83EB82FC827B8B6A8B01C08B858E
:100A58001B37E8F0412F50E0FA01E05BF109ED3473
:100A6800F10590F4EC5CFF4F0C947F0F10E80FC079
:100A780011E80DC012E80BC013E809C014E807C05C
:100A880015E805C016E803C01FE301C01FE7788911
:100A9800780F7B87472F415009892F856E850E94E3
:100AA800AB0780EE810F90E0880F991F880F991F80
:100AB800880F991F9C01092E000C440B28593E4FA2
:100AC8004F4FF901E49047FDE0800196092E000C94
:100AD800AA0B9C014A2F28593E4F4F4F2F83388726
:100AE80049871E821D8214C0EF81F8858985E490AC
:100AF80087FDE0808D819E81089708F0E12C2F8189
:100B0800388549852F5F3F4F4F4F2F833887498757
:100B18006A897B89672B09F445C0CC24C394D12CFE
:100B2800F12C8A899B89181619060CF050C001E02F
:100B380010E08A2D9B2D0E94470F0F5F1F4FEA89F7
:100B4800FB89E017F107ACF742C0C701042C02C0CB
:100B5800959587950A94E2F780FD03C03B802C8029
:100B680002C039802A802A893B89121613066CF440
:100B7800082D192D832D922D0E94470F0F5F1F4FAF
:100B88006A897B8960177107ACF771E0471A5108C9
:100B9800E0F6FFEFCF1ADF0A2A893B892C153D05BD
:100BA80008F0BFCF6D817E816F5F7F4F7E836D833D
:100BB8006930710509F098CF9A859F5F9A87EC850F
:100BC800FD85E90FF11D1081111141CF03C0472C9C
:100BD800562CBBCF63960FB6F894DEBF0FBECDBFC1
:100BE800DF91CF911F910F91FF90EF90DF90CF9001
:100BF800BF90AF909F908F907F906F905F904F9035
:060C08003F902F900895BB
:100C0E00AFE0B0E0EDE0F6E00C94140E1C016B01C9
:100C1E005A8349832B83FB01828193818480958043
:100C2E00E080F180A680B78097FD03C0E894E1F8DC
:100C3E0002C081E090E0E981FA81408051806280BB
:100C4E0073809701207133273D832C838401E4FE4A
:100C5E0007C0411451046104710411F002501109CE
:100C6E00F701E870FF27FF83EE83E3FE02C0015019
:100C7E001109F6010084F185E02D3197FF87EE878B
:100C8E00EA0DFB1D10829C01201B310B3987288732
:100C9E00C701827099279B878A87EB818E2FEE0F73
:100CAE00990B9C01215431093D872C872E853F8558
:100CBE002230310530F48C819D81892B09F041C0A1
:100CCE005BC0411451046104710459F18E859F85F6
:100CDE0001979F878E87C2018F7099278A30910561
:100CEE0014F4C09602C0895A9F4FEC85FD857A9701
:100CFE0048F49C012062215631092A31310510F445
:100D0E000E94510FEE85FF85EA0DFB1D8083015079
:100D1E00110984E076946794579447948A95D1F795
:100D2E00C5CF88859985800F911F1816190674F204
:100D3E00101611060CF0BFCFEA85FB85EF2B31F6AE
:100D4E00BACFE981FA8180819181A281B381892B09
:100D5E008A2B8B2B89F0EE85FF85EA0DFB1D3197D3
:100D6E002B8120838E859F8502979F878E87FC011E
:100D7E00EA0DFB1D80E38083EE81FF81EF2B59F09E
:100D8E002E853F85215031093F872E87F901EA0DC7
:100D9E00FB1D80E28083F6012085318521503109CB
:100DAE008E859F85281B390B8A0D9B1DAC0160E833
:100DBE008401C1010E94A50B9C01F10180819181EA
:100DCE0090FF06C0F60182819381821793070CF47F
:0A0DDE00C9012F96E2E10C94660EA5
:100DE800CF93DF93CDB7DEB7A8970FB6F894DEBFE1
:100DF8000FBECDBF0E94240F0E94F30E0E94890FE0
:100E08000E94870F0E94050F0E94790F0E943E08DA
:100E18000E94150F7894D12C2E0123E0420E511C0C
:100E2800C201A0E88EA39FA3A8A7992493945E016A
:100E38009CE1A90EB11C0F2EF4EC6F2EF4E07F2E6E
:100E4800F0E08F2EF02D1E01A2E22A0E311CBE0109
:100E58006E5F7F4FCE0101960E94FE0989811F9225
:100E68008F938A811F928F9380EA94E0A0E0AF93DA
:100E78009F938F935F924F920E94E00E6EA17FA185
:100E880088A50E944B0E8FEF93E2A4EF815090400B
:100E9800A040E1F700C000000FB6F894DEBF0FBE17
:100EA800CDBF19990AC031E0D31210C06FEA74E0BF
:100EB80080E00E944B0ED12C0CC0D11009C066EB0B
:100EC80074E080E00E944B0ED92C03C0D12C01C0E5
:100ED800D92C0E94150F8A811F928F938DEB94E075
:100EE800A0E0AF939F938F93BF92AF920E94E00EC2
:100EF8006894CC24C1F8EE24EA94FE2C00E010E0BB
:100F080024E045E065E0C5010E94E40489811F9260
:100F18008F938F927F926F923F922F920E94E00E52
:100F280024E048E265E0C1010E94E4048FEF93EBFE
:100F3800A4EC24E081509040A0402040D9F700C0A4
:0E0F480000000FB6F894DEBF0FBECDBF80CF05
:100F56000F93CF93DF93CDB7DEB72C970FB6F894E8
:100F6600DEBF0FBECDBF9CE0E8E4F1E0DE011196E6
:100F760001900D929A95E1F70230B1F1033009F430
:100F86004EC0013089F090E092619E838D8350E0DF
:100F9600556158874F8370E073617A87698730E0BF
:100FA60036613C872B8755C0E3E0F8E1FC83EB8391
:100FB600E3E8F0E0DF01A81BB109CD0192619E8351
:100FC6008D83E41BF109F561F887EF838FEA90E0E2
:100FD600AC01461B510953615A874987821B910907
:100FE60096619C878B8735C0E5E0F8E1FC83EB834F
:100FF600E3E8F0E0DF01A61BB109BD0172617E8363
:101006006D83E21BF109F561F887EF8390E0936148
:101016009A87898750E056615C874B871AC0E6E05D
:10102600F8E1FC83EB8370E072617E836D8330E0D0
:10103600356138872F832FEA30E0B901681B7109C3
:10104600CB0193619A878987241B310936613C87D6
:101056002B87BE016F5F7F4F80E846E050E00E941D
:10106600780D2C960FB6F894DEBF0FBECDBFDF917C
:06107600CF910F910895D7
:10107C00CF93DF93CDB7DEB7C654D1090FB6F89432
:10108C00DEBF0FBECDBF8AB18C608AB986E4E2E0C8
:10109C00F1E0BE016F5F7F4FDB0101900D928A95ED
:1010AC00E1F72FEF85EA9EE0215080409040E1F778
:1010BC0000C000005B982FE789EA93E02150804044
:1010CC009040E1F700C000002A9A2FE789EA93E0EC
:1010DC00215080409040E1F700C000005A9A2FE761
:1010EC0089EA93E0215080409040E1F700C0000075
:1010FC005B9A2FE789EA93E0215080409040E1F71A
:10110C0000C0000080E842E050E00E94780D2FE71C
:10111C0089EA93E0215080409040E1F700C0000044
:10112C00BE016B5F7F4F80E84AE050E00E94780D73
:10113C002FE789EA93E0215080409040E1F700C00E
:10114C000000BE01675E7F4F80E847E150E00E94DF
:10115C00780DCA5BDF4F0FB6F894DEBF0FBECDBF64
:06116C00DF91CF91089510
:10117200A2E0B0E0EFEBF8E00C94140E4C016B012E
:10118200FB0122813381A480B580808191819A8381
:10119200898366807780FA01208031804280538083
:1011A200B201A10157FE07C044275527BA014219CF
:1011B20053096409750937FD03C08D7F9A838983BA
:1011C200950157FC05C0898182FD02C083FF02C0E0
:1011D20021503109CE0101967C010AE010E0C601DE
:1011E2000E94990957FC03C0298122FF0AC0019776
:1011F200F301E80FF91F57FC02C02BE209C02DE2F0
:1012020007C023FF06C00197F301E80FF91F20E290
:101212002083E980FA80F601208531852150310949
:10122200281B390B860D971DAC0160E88501C401AE
:101232000E94A50B9C01F4018081918190FF06C060
:10124200F60182819381821793070CF4C9012296D9
:06125200E2E10C94660EBF
:10125800CF93DF93DC01F90168387105F1F05CF494
:101268006138710561F164387105C9F1603871053B
:1012780009F056C034C0603C710561F1603F7105EA
:1012880009F443C0603A710509F04AC0C081D181B0
:10129800CE010296918380832AC0C081D181CE017C
:1012A800029691838083452B39F04881042E000CE7
:1012B800550B660B770B21C0488150E02EC0C081CA
:1012C800D181CE01049691838083488159816A81B6
:1012D8007B8113C0C081D181CE0102961AC0C08122
:1012E800D181CE01029691838083452BA1F048815C
:1012F8005981052E000C660B770B4D935D936D930A
:101308007C93139781E090E00DC0C081D181CE011C
:101318000396918380834881598160E070E0EDCF26
:0A13280080E090E0DF91CF9108957E
:10133200A0E0B0E0EFE9F9E00C94160EDC01280120
:101342001696AD90BC901797F70180819181129605
:10135200ED91FC9113971896CD91DC9119972197F5
:10136200F7FF02C0E1E0F0E0CA0DDB1D188269015F
:10137200A1E0B0E08F01021B130B4C01F2E08F22BF
:101382009924052C000C66087708CE018A199B095E
:10139200CA15DB0519F1411551056105710589F081
:1013A200CB01BA01A30192010E94D10DCA01A62F5D
:1013B200B72F605D6A9341E0C41AD108A901BC014C
:1013C200E4CF98012C0D3D1D121613064CF31C148C
:1013D2001D0434F48114910419F702C080E090E0F6
:1013E200AB2B31F4F701208131812F7E31832083B1
:0A13F200CDB7DEB7E0E10C94680E01
:1013FC00AF92BF92CF92DF92EF92FF920F931F9317
:10140C00CF93DF9300D000D00F92CDB7DEB76C0135
:10141C007B01389A40982FEF80EE90E0215080406D
:10142C009040E1F700C00000409AA5EDAA95F1F7B5
:10143C00000038983099FECF309BFECF3099FECF0C
:10144C00FE01319685E0DF011D928A95E9F78F0147
:10145C005E01B6E0AB0EB11C0E94810EF8018193C7
:10146C008F01EA15FB05C1F759814B812A81852F24
:10147C0090E0820F911D840F911D2C81820F911D84
:10148C002D8130E08217930721F4D6015C93F7018C
:10149C0040830F900F900F900F900F90DF91CF9192
:1014AC001F910F91FF90EF90DF90CF90BF90AF9076
:0214BC00089591
:1014BE00A2E0B0E0E5E6FAE00C94180E5C016B01D8
:1014CE00FB012281338184809580808191819A8372
:1014DE0089836680778037FD03C08D7F9A838983E9
:1014EE00FA014081518162817381CE0101967C01A6
:1014FE0008E010E09401C6010E949909298124FF99
:10150E0006C00197F301E80FF91F20E3208329811C
:10151E0023FF06C00197F301E80FF91F20E2208395
:10152E00E980FA80F6012085318521503109281B8A
:10153E00390B860D971DAC0160E88401C5010E9430
:10154E00A50B9C01F5018081918190FF06C0F601EB
:10155E0082819381821793070CF4C9012296EEE0E3
:04156E000C946A0E61
:101572006F927F928F92EF92FF920F931F93CF936E
:10158200DF93CDB7DEB761970FB6F894DEBF0FBE1B
:10159200CDBFFE01319651E1DF011D925A95E9F767
:1015A200A2E0B1E0BA83A9839C838B8377FF09C051
:1015B2008FE490E090930101809300018FEF9FEF01
:1015C20019C03901842E7C01615071097F836E83B9
:1015D2009801682DA301CF010E949B0E4885598571
:1015E2002E813F814217530708F49A01F701E20F57
:1015F200F31F108261960FB6F894DEBF0FBECDBF07
:10160200DF91CF911F910F91FF90EF908F907F907C
:041612006F90089538
:10161600CF92DF92EF92DC0190E0292F30E0220F8B
:10162600331F6901032E000CEE086E2DA6014753E9
:101636005B4F6F4F6A01E62EFA018491E7FC8081C9
:1016460081110DC02F5F3F4F032E000C440B275313
:101656003B4F4F4FF901849147FD808124C0CD90C7
:10166600DD90EC901297F6014491E7FC40818413DB
:1016760015C02F5F3F4F032E000C440B27533B4FE3
:101686004F4FF901949147FD90815FEFC51AD50A36
:10169600E50ACD92DD92EC92129701C09F5F9B30D6
:0E16A60008F4BBCF892FEF90DF90CF9008950E
:1016B4001F920F920FB60F9211242F933F934F93C3
:1016C4005F936F937F938F939F93AF93BF93EF93A6
:1016D400FF938091C60080935801809158018F3206
:1016E40039F41092550110925401109257011AC006
:1016F400809158018C3529F40E94B30E1092570141
:1017040011C080915701823068F4E09157018091B3
:101714005801F0E0EC5AFE4F8083809157018F5FAF
:1017240080935701FF91EF91BF91AF919F918F915A
:101734007F916F915F914F913F912F910F900FBEC9
:061744000F901F901895A4
:10174A006F927F928F92AF92BF92CF92DF92EF9277
:10175A00FF920F931F93CF93DF935C013A01862E7A
:10176A00E901670181E0C822DD24E0FC03C02017FB
:10177A00310758F09E01682DA301C5010E94440D4E
:10178A00C017D10710F0CE0118C07801EC1AFD0A73
:10179A00E114F10449F0B50180E290E00E943A0CAC
:1017AA0081E0E81AF108F4CFCD2831F49E01682DC2
:1017BA00A301C5010E94440DC801DF91CF911F9179
:1017CA000F91FF90EF90DF90CF90BF90AF908F90E6
:0617DA007F906F9008955E
:1017E000A3E8B0E0E6EFFBE00C941A0E5C014901BF
:1017F000CF57DF4F488359836A83C158D040C12CEB
:10180000D12CCF57DF4F2881C158D040CE57DF4F62
:101810009881C258D040CD57DF4F8881C358D040FF
:10182000E22FF92F949187FD90819923E9F07401BB
:10183000860120E830E0AE014F5F5F4FBE016F5779
:101840007F4FC5010E9478028C0D9D1D8C159D0552
:101850004CF48FE490E090930101809300018FEFAE
:101860009FEF03C06C01CDCFC601CD57DF4FECE039
:041870000C946C0E5A
:101874000F931F93CF93DF93DB012D913C9111972D
:1018840030FF25C017964D915C91189715962D91B0
:101894003C9116974217530778F41296ED91FC91F8
:1018A4001397808312962D913C9113972F5F3F4F8E
:1018B40013963C932E93129717962D913C9118975B
:1018C4002F5F3F4F18963C932E93179715C01D9684
:1018D400ED91FC911E97309719F48FEF9FEF0CC098
:1018E4008B01EC010995892BC1F7F801878190855B
:1018F400019690878783CE01DF91CF911F910F913D
:02190400089544
:10190600A2E0B0E0E9E8FCE00C94180E5C016B0183
:10191600FB012281338184809580808191819A8325
:1019260089836680778037FD03C08D7F9A8389839C
:10193600FA014081518162817381CE0101967C0159
:101946000AE010E09401C6010E949909E980FA8034
:10195600F6012085318521503109281B390B860D6A
:10196600971DAC0160E88401C5010E94A50B9C018E
:10197600F5018081918190FF06C0F60182819381F5
:10198600821793070CF4C9012296EEE00C946A0EB6
:101996006F927F928F92CF92DF92EF92FF920F9388
:1019A6001F93CF93DF936C01FB013901842EC8018D
:1019B600C281D38104811581E080F180232B242B01
:1019C60031F42FED622E24E0722E20E0822E009755
:1019D60021F4882DB3010E94CA0ED7FD04C0C81792
:1019E600D90708F4CE019C01682DA301C6010E9407
:1019F600A50BDF91CF911F910F91FF90EF90DF9094
:0A1A0600CF908F907F906F900895AD
:101A1000DC012D913D914C911297F901849147FD84
:101A200080818A3221F080E090E07AE011C02F5F5F
:101A30003F4F4F4F2D933D934C93DB01ED91FC9124
:101A40001197CF0102968D939C9380819181089587
:101A50002D913D914C911297F901549147FD508180
:101A600050535A3080F4789FF001799FF00D112483
:101A7000CF01850F911D2F5F3F4F4F4F2D933D930A
:081A80004C931297E5CF089585
:101A88006F927F928F92CF92DF92EF920F931F9374
:101A9800CF93DF938C016A01E62EE9013A01862E85
:101AA800620E731E811C37FD8A94C614D704E8049D
:101AB80079F0F6018491E7FC8081B801082E000CCA
:101AC800990B0E943A0C8FEFC81AD80AE80AEDCF92
:101AD800CE01DF91CF911F910F91EF90DF90CF90C2
:081AE8008F907F906F9008952C
:101AF0006F927F928F92CF92DF92EF9241155105B4
:101B000011F13B01882E6B01E82E440F551F640E26
:101B1000751E811C57FD8A945A9AF6015E2D0E940B
:101B2000620F872F0E94720FF6018491E7FC80817B
:101B30000E94720F5A9882E0C80ED11CE11CC61494
:101B4000D704E80449F7EF90DF90CF908F907F9013
:041B50006F900895F5
:101B54001F921FB61F9211248F939F93EF93FF93AD
:101B6400809156018F5F8093560180915601853094
:101B740040F04498E1E8F0E080818A7F808310920D
:101B8400560186EF92EC9093850080938400FF9138
:0E1B9400EF919F918F911F901FBE1F9018958B
:101BA200A1E21A2EAA1BBB1BFD010DC0AA1FBB1F5F
:101BB200EE1FFF1FA217B307E407F50720F0A21BD1
:101BC200B30BE40BF50B661F771F881F991F1A943E
:101BD20069F760957095809590959B01AC01BD0168
:041BE200CF01089592
:101BE600CF92DF92EF926B01E82EF6018491E7FC2B
:101BF6008081F901549147FD508185130BC08823DC
:101C060041F08FEFC81AD80AE80A2F5F3F4F4F4FAF
:101C1600ECCF582F90E0851B9109EF90DF90CF9085
:021C260008951F
:101C28002F923F924F925F926F927F928F929F92E4
:101C3800AF92BF92CF92DF92EF92FF920F931F93D2
:101C4800CF93DF93CDB7DEB7CA1BDB0B0FB6F89483
:081C5800DEBF0FBECDBF0994F1
:101C60008F938FB78F939F93EF93FF9319990CC026
:101C7000449A86EF92EC9093850080938400E1E88B
:101C8000F0E0808185608083FF91EF919F918F913B
:061C90008FBF8F91189533
:101C9600CF92DF92EF926B01E82EFB018491E7FC75
:101CA6008081882361F00E945A0F8FEFC81AD80AE4
:101CB600E80AF6018491E7FC80818111F4CFEF9068
:061CC600DF90CF900895AD
:101CCC002A88398848885F846E847D848C849B84C0
:101CDC00AA84B984C884DF80EE80FD800C811B81CE
:101CEC00AA81B981CE0FD11D0FB6F894DEBF0FBEFD
:061CFC00CDBFED010895CB
:101D020027E030E080E061E070E0309BFECF90EAB7
:101D12009A95F1F7309B08C0AB01022E02C0440F26
:101D2200551F0A94E2F7842B3099FECF21503109D6
:041D320060F70895B9
:101D3600A2E0B0E0E1EAFEE00C94220E8C013A83C8
:101D460029839E012F5F3F4F0E94F00BF8012081EF
:101D560024FF02C08FEF9FEF2296E4E00C94740EEE
:101D660064E571E080E82CEE34E040E00E94F30D7B
:101D7600892B61F4449A86EF92EC909385008093C8
:0E1D86008400E1E8F0E08081856080830895AC
:101D9400CF92DF92EF926B01E82EA82FCB01FC01CA
:101DA4002491A7FD2081222319F00196A11DF7CFCC
:0C1DB4008C199D09EF90DF90CF900895EE
:101DC000A0E0B0E0E6EEFEE00C94240E9E01265F5B
:101DD0003F4F4F81588569858D819E810E94300FCC
:061DE000E2E00C94760E17
:101DE6002198299AE8E6F0E0808181608083EBE61D
:101DF600F0E0808182608083E9E6F0E080818160A6
:041E06008083089538
:101E0A001092C50087E68093C400E1ECF0E088E117
:101E1A00808380818068808386E08093C2000895F1
:101E2A00CF93DF93C0ECDAE58FEF0E94720F8FEF4A
:0E1E3A000E94720F2197C1F7DF91CF9108959A
:101E4800EFE6F0E080818160808386EF92EC9093EA
:081E58008500809384000895C9
:101E60000F931F9389019A01462F6FEF7FE70E941E
:081E7000B90A1F910F910895BA
:101E7800EC010E948E0F0E948D0FCE010E948F0FE1
:061E8800CE010E948B0F49
:101E8E00CF93C82F892F0E94720F8C2F0E94720F32
:041E9E00CF91089543
:101EA2009C01215631092A31310510F48F75992789
:021EB200089591
:101EB400E0ECF0E0908195FFFDCF8093C60008959B
:101EC40057FD03C0659175910895619171910895CD
:101ED4009C01215431092A31310508F480620895A6
:0E1EE4002A988EBD0DB407FEFDCF2A9A0895F0
:0C1EF20084B18C6284B980E58CBD089539
:0C1EFE00EE0FFF1F0590F491E02D0994F9
:041F0A000C94000033
:041F0E003898089562
:041F12003C9A089558
:041F16000E94B20073
:021F1A00089528
:021F1C00089526
:021F1E00089524
:101F2000FDFDFDFD00EF04EE041BFEFEFEFE90EF46
:101F3000044A3F7F04EE064390EF83090008AF0B8D
:101F4000000A00050006000700EF0CEE90EF80008D
:101F5000B0EF024900EF017F81E102E276E283E126
:101F6000018090EF000008EF001800120015001328
:021F7000001659
:00000001FF
