:100000000C9437000C9493010C9493010C943A01D6
:100010000C9493010C9493010C9493010C94930110
:100020000C9493010C9493010C9493010C94930100
:100030000C9493010C94F2000C9493010C94930192
:100040000C9493010C9493010C946E000C94930106
:100050000C9493010C9493010C9493010C949301D0
:100060000C9493010C9493010100010F8000112462
:100070001FBECFEFD8E0DEBFCDBFE8E6F0E040E046
:1000800017C0B591A59135912591059107FD0CC03B
:1000900095918591EF01F92FE82F05900D92A21708
:1000A000B307D9F7FE0104C01D92A217B307E1F709
:1000B000ED36F40731F70E9489010C947E01F89423
:0200C000FFCF70
:1000C2006F70656E2077696E646F7700636C6F7313
:0900D200652077696E646F770008
:1000DC001F920F920FB60F9211242F933F934F93B1
:1000EC005F936F937F938F939F93AF93BF93EF9394
:1000FC00FF938091C60080930E0180910E018C338A
:10010C0051F48CE0E0E0F1E0DF011D928A95E9F713
:10011C0010920D011AC080910E018E3329F40E94A9
:10012C00BC0010920D0111C080910D018D3068F44E
:10013C00E0910D01F0E080910E01E050FF4F8083C3
:10014C0080910D018F5F80930D01FF91EF91BF9115
:10015C00AF919F918F917F916F915F914F913F9153
:0C016C002F910F900FBE0F901F90189560
:10017800CF92DF92EF9280E091E06C0120E8E22ECE
:1001880022EC30E040E08E2DB6010E941901892B47
:1001980061F4449A86EF92EC9093850080938400F2
:1001A800E1E8F0E08081856080832EEC30E040E07B
:1001B8008E2DB6010E941901892B61F4449A86EFAD
:1001C80092EC9093850080938400E1E8F0E08081D0
:0C01D80085608083EF90DF90CF90089549
:1001E4001F921FB61F9211248F939F93EF93FF9337
:1001F40080910C018F5F80930C0180910C018530FC
:1002040040F04498E1E8F0E080818A7F8083109296
:100214000C0186EF92EC9093850080938400FF910B
:0E022400EF919F918F911F901FBE1F90189514
:10023200CF92DF92EF926B01E82EF6018491E7FCF8
:100242008081F901549147FD508185130BC08823A9
:1002520041F08FEFC81AD80AE80A2F5F3F4F4F4F7D
:10026200ECCF582F90E0851B9109EF90DF90CF9053
:020272000895ED
:100274008F938FB78F939F93EF93FF93199B0CC02A
:10028400449A86EF92EC9093850080938400E1E891
:10029400F0E0808185608083FF91EF919F918F9141
:0602A4008FBF8F91189539
:1002AA001092C50087E68093C400E1ECF0E088E193
:1002BA00808380818068808386E08093C20008956D
:1002CA002198299AE8E6F0E0808181608083EBE654
:0A02DA00F0E08081826080830895C7
:1002E400EFE6F0E080818160808386EF92EC90936A
:0802F400850080938400089549
:1002FC00EC010E949A010E949901CE010E949B017F
:06030C00CE010E949701E2
:100312000E9472010E9465010E9495010E9455018E
:040322007894FFCFFD
:040326000C94000033
:04032A003C9A08955C
:04032E000E945F00CA
:0203320008952C
:0203340008952A
:02033600089528
:00000001FF
