:100000000C9434000C946A000C946A000C946A00FE
:100010000C946A000C946A000C946A000C946A00B8
:100020000C946A000C946A000C946A000C946A00A8
:100030000C946A000C946C000C946A000C946A0096
:100040000C946A000C946A000C946A000C946A0088
:100050000C946A000C946A000C946A000C946A0078
:100060000C946A000C946A0011241FBECFEFD8E0F4
:10007000DEBFCDBF0E9460000C945500F894FFCF06
:100080003C9A5198599A10928000E1E8F0E0808102
:1000900085608083EFE6F0E080818160808310924C
:0A00A0008500109284007894089502
:1000AA00EC010E9471000E947000CE010E94720051
:0600BA00CE010E946E0061
:1000C0000E944000E4E8F0E04999FECF449A118292
:0400D0001082FACFD1
:0400D4000C94000088
:0400D800449818959B
:0400DC000E943E0040
:0200E000089581
:0200E20008957F
:0200E40008957D
:00000001FF
