:100000000C9434000C9472000C9472000C947200E6
:100010000C9472000C9472000C9472000C94720098
:100020000C9472000C9472000C9472000C94720088
:100030000C9472000C946C000C9472000C9472007E
:100040000C9472000C9472000C9472000C94720068
:100050000C9472000C9472000C9472000C94720058
:100060000C9472000C94720011241FBECFEFD8E0E4
:10007000DEBFCDBF0E944F000C945B00F894FFCF11
:10008000E1E8F0E0808185608083EFE6F0E0808148
:0E009000816080831092850010928400089594
:10009E000E9440000E946F000E9474004999FECF9A
:0800AE00449A0E946600FACF9B
:1000B600EC010E9479000E947800CE010E947A002D
:0600C600CE010E9476004D
:0C00CC0010928500109284007894089532
:0600D8004498F89418950D
:0600DE005198599A0895A3
:0400E4000C94000078
:0400E8003C9A0895A1
:0400EC000E943E0030
:0200F000089571
:0200F20008956F
:0200F40008956D
:00000001FF
