:100000000C9437000C94CF000C94CF000C94CF00CC
:100010000C94CF000C9488000C94CF000C94CF006B
:100020000C94CF000C94CF000C94CF000C94CF0014
:100030000C94CF000C9461000C94CF000C94CF0072
:100040000C94CF000C94CF000C94CF000C94CF00F4
:100050000C94CF000C94CF000C94CF000C94CF00E4
:100060000C94CF000C94CF000100010180001124FA
:100070001FBECFEFD8E0DEBFCDBFE8E6F0E040E046
:1000800017C0B591A59135912591059107FD0CC03B
:1000900095918591EF01F92FE82F05900D92A21708
:1000A000B307D9F7FE0104C01D92A217B307E1F709
:1000B000ED36F40731F70E94C7000C94BC00F894A9
:0200C000FFCF70
:1000C2001F921FB61F9211248F939F93EF93FF935A
:1000D200809100018F5F8093000180910001853043
:1000E20040F04498E1E8F0E080818A7F80831092BA
:1000F200000186EF92EC9093850080938400FF913B
:0E010200EF919F918F911F901FBE1F90189537
:100110008F938FB78F939F93EF93FF93499B0CC05F
:10012000449A86EF92EC9093850080938400E1E8F6
:10013000F0E0808185608083FF91EF919F918F91A6
:060140008FBF8F9118959E
:100146005198599AE8E6F0E0808184608083EDE674
:0A015600F0E080818260808308954C
:10016000EFE6F0E080818160808386EF92EC9093EF
:080170008500809384000895CE
:10017800EC010E94D6000E94D500CE010E94D70053
:06018800CE010E94D3002D
:10018E000E94B0000E94A3000E94D1007894FFCF7D
:04019E000C940000BD
:0401A2003C9A0895E6
:0401A6000E945F0054
:0201AA000895B6
:0201AC000895B4
:0201AE000895B2
:00000001FF
