:100000000C9434000C94AD000C94AD000C94AD0035
:100010000C94AD000C9440000C94AD000C94AD0019
:100020000C94AD000C94AD000C94AD000C94AD009C
:100030000C94AD000C9467000C94AD000C94AD00D2
:100040000C94AD000C94AD000C94AD000C94AD007C
:100050000C94AD000C94AD000C94AD000C94AD006C
:100060000C94AD000C94AD0011241FBECFEFD8E06E
:10007000DEBFCDBF0E94A6000C949100F894FFCF84
:100080001F920F920FB60F9211242F933F934F930D
:100090005F936F937F938F939F93AF93BF93EF93F0
:1000A000FF93499B03C0449A0E949C00FF91EF91EB
:1000B000BF91AF919F918F917F916F915F914F9180
:0E00C0003F912F910F900FBE0F901F9018953B
:1000CE008F938FB78F93EF93FF934498E1E8F0E00F
:1000DE0080818A7F8083FF91EF918F918FBF8F9167
:0200EE00189563
:1000F0005198599AE8E6F0E0808184608083EDE6CB
:0C010000F0E08081826080837894089594
:10010C00EFE6F0E080818160808310928500109290
:06011C00840078940895B0
:10012200EC010E94B4000E94B300CE010E94B5000F
:06013200CE010E94B100A5
:100138001092850010928400E1E8F0E080818560EB
:040148008083089513
:0E014C000E9486000E9478000E94AF00FFCF44
:04015A000C94000001
:04015E003C9A08952A
:040162000E943E00B9
:020166000895FA
:020168000895F8
:02016A000895F6
:00000001FF
